{
  "contractName": "SimpleBank",
  "abi": [
    {
      "inputs": [],
      "payable": false,
      "stateMutability": "nonpayable",
      "type": "constructor"
    },
    {
      "anonymous": false,
      "inputs": [
        {
          "indexed": false,
          "internalType": "address",
          "name": "accountAddress",
          "type": "address"
        },
        {
          "indexed": false,
          "internalType": "uint256",
          "name": "amount",
          "type": "uint256"
        }
      ],
      "name": "LogDepositMade",
      "type": "event"
    },
    {
      "payable": true,
      "stateMutability": "payable",
      "type": "fallback"
    },
    {
      "constant": true,
      "inputs": [],
      "name": "owner",
      "outputs": [
        {
          "internalType": "address",
          "name": "",
          "type": "address"
        }
      ],
      "payable": false,
      "stateMutability": "view",
      "type": "function"
    },
    {
      "constant": true,
      "inputs": [],
      "name": "wAmount",
      "outputs": [
        {
          "internalType": "uint256",
          "name": "",
          "type": "uint256"
        }
      ],
      "payable": false,
      "stateMutability": "view",
      "type": "function"
    },
    {
      "constant": true,
      "inputs": [],
      "name": "whoDeposited",
      "outputs": [
        {
          "internalType": "address",
          "name": "",
          "type": "address"
        }
      ],
      "payable": false,
      "stateMutability": "view",
      "type": "function"
    },
    {
      "constant": true,
      "inputs": [],
      "name": "whoWithdrew",
      "outputs": [
        {
          "internalType": "address",
          "name": "",
          "type": "address"
        }
      ],
      "payable": false,
      "stateMutability": "view",
      "type": "function"
    },
    {
      "constant": false,
      "inputs": [],
      "name": "deposit",
      "outputs": [
        {
          "internalType": "uint256",
          "name": "remainingBal",
          "type": "uint256"
        }
      ],
      "payable": true,
      "stateMutability": "payable",
      "type": "function"
    },
    {
      "constant": false,
      "inputs": [
        {
          "internalType": "uint256",
          "name": "withdrawAmount",
          "type": "uint256"
        }
      ],
      "name": "withdraw",
      "outputs": [
        {
          "internalType": "uint256",
          "name": "remainingBal",
          "type": "uint256"
        }
      ],
      "payable": true,
      "stateMutability": "payable",
      "type": "function"
    },
    {
      "constant": true,
      "inputs": [],
      "name": "balance",
      "outputs": [
        {
          "internalType": "uint256",
          "name": "",
          "type": "uint256"
        }
      ],
      "payable": false,
      "stateMutability": "view",
      "type": "function"
    },
    {
      "constant": false,
      "inputs": [],
      "name": "destroy",
      "outputs": [],
      "payable": false,
      "stateMutability": "nonpayable",
      "type": "function"
    }
  ],
  "bytecode": "0x608060405234801561001057600080fd5b5033600160006101000a81548173ffffffffffffffffffffffffffffffffffffffff021916908373ffffffffffffffffffffffffffffffffffffffff160217905550610970806100616000396000f3fe60806040526004361061007b5760003560e01c80638da5cb5b1161004e5780638da5cb5b1461029a578063a1761664146102f1578063b69ef8a814610348578063d0e30db0146103735761007b565b80632e1a7d4d146101bf57806334c989f11461020157806354ac38391461022c57806383197ef014610283575b6000803373ffffffffffffffffffffffffffffffffffffffff1673ffffffffffffffffffffffffffffffffffffffff16815260200190815260200160002054346000803373ffffffffffffffffffffffffffffffffffffffff1673ffffffffffffffffffffffffffffffffffffffff1681526020019081526020016000205401101561010657600080fd5b346000803373ffffffffffffffffffffffffffffffffffffffff1673ffffffffffffffffffffffffffffffffffffffff168152602001908152602001600020600082825401925050819055507fa8126f7572bb1fdeae5b5aa9ec126438b91f658a07873f009d041ae690f3a1933334604051808373ffffffffffffffffffffffffffffffffffffffff1673ffffffffffffffffffffffffffffffffffffffff1681526020018281526020019250505060405180910390a1005b6101eb600480360360208110156101d557600080fd5b8101908080359060200190929190505050610391565b6040518082815260200191505060405180910390f35b34801561020d57600080fd5b506102166104ff565b6040518082815260200191505060405180910390f35b34801561023857600080fd5b50610241610505565b604051808273ffffffffffffffffffffffffffffffffffffffff1673ffffffffffffffffffffffffffffffffffffffff16815260200191505060405180910390f35b34801561028f57600080fd5b5061029861052b565b005b3480156102a657600080fd5b506102af6106b2565b604051808273ffffffffffffffffffffffffffffffffffffffff1673ffffffffffffffffffffffffffffffffffffffff16815260200191505060405180910390f35b3480156102fd57600080fd5b506103066106d8565b604051808273ffffffffffffffffffffffffffffffffffffffff1673ffffffffffffffffffffffffffffffffffffffff16815260200191505060405180910390f35b34801561035457600080fd5b5061035d6106fe565b6040518082815260200191505060405180910390f35b61037b610744565b6040518082815260200191505060405180910390f35b600033600460006101000a81548173ffffffffffffffffffffffffffffffffffffffff021916908373ffffffffffffffffffffffffffffffffffffffff160217905550816003819055506000803373ffffffffffffffffffffffffffffffffffffffff1673ffffffffffffffffffffffffffffffffffffffff1681526020019081526020016000205482111561042657600080fd5b816000803373ffffffffffffffffffffffffffffffffffffffff1673ffffffffffffffffffffffffffffffffffffffff168152602001908152602001600020600082825403925050819055503373ffffffffffffffffffffffffffffffffffffffff166108fc839081150290604051600060405180830381858888f193505050501580156104b8573d6000803e3d6000fd5b506000803373ffffffffffffffffffffffffffffffffffffffff1673ffffffffffffffffffffffffffffffffffffffff168152602001908152602001600020549050919050565b60035481565b600460009054906101000a900473ffffffffffffffffffffffffffffffffffffffff1681565b600160009054906101000a900473ffffffffffffffffffffffffffffffffffffffff1673ffffffffffffffffffffffffffffffffffffffff163373ffffffffffffffffffffffffffffffffffffffff16146105d1576040517f08c379a000000000000000000000000000000000000000000000000000000000815260040180806020018281038252602e81526020018061090e602e913960400191505060405180910390fd5b600160009054906101000a900473ffffffffffffffffffffffffffffffffffffffff1673ffffffffffffffffffffffffffffffffffffffff163373ffffffffffffffffffffffffffffffffffffffff1614610677576040517f08c379a000000000000000000000000000000000000000000000000000000000815260040180806020018281038252602e81526020018061090e602e913960400191505060405180910390fd5b600160009054906101000a900473ffffffffffffffffffffffffffffffffffffffff1673ffffffffffffffffffffffffffffffffffffffff16ff5b600160009054906101000a900473ffffffffffffffffffffffffffffffffffffffff1681565b600260009054906101000a900473ffffffffffffffffffffffffffffffffffffffff1681565b60008060003373ffffffffffffffffffffffffffffffffffffffff1673ffffffffffffffffffffffffffffffffffffffff16815260200190815260200160002054905090565b600033600260006101000a81548173ffffffffffffffffffffffffffffffffffffffff021916908373ffffffffffffffffffffffffffffffffffffffff1602179055506000803373ffffffffffffffffffffffffffffffffffffffff1673ffffffffffffffffffffffffffffffffffffffff16815260200190815260200160002054346000803373ffffffffffffffffffffffffffffffffffffffff1673ffffffffffffffffffffffffffffffffffffffff1681526020019081526020016000205401101561081257600080fd5b346000803373ffffffffffffffffffffffffffffffffffffffff1673ffffffffffffffffffffffffffffffffffffffff168152602001908152602001600020600082825401925050819055507fa8126f7572bb1fdeae5b5aa9ec126438b91f658a07873f009d041ae690f3a1933334604051808373ffffffffffffffffffffffffffffffffffffffff1673ffffffffffffffffffffffffffffffffffffffff1681526020018281526020019250505060405180910390a16000803373ffffffffffffffffffffffffffffffffffffffff1673ffffffffffffffffffffffffffffffffffffffff1681526020019081526020016000205490509056fe4f6e6c792074686520636f6e7472616374206f776e65722063616e2063616c6c20746869732066756e6374696f6ea265627a7a7231582053c6144c466ab26d7d9dedc1c0eba0c8095f6e48fea2fb4b6a9b01175fdd0eff64736f6c63430005100032",
  "source": "// First, a simple Bank contract\r\n// Allows deposits, withdrawals, balance checks and selfdestruction\r\n\r\n// simple_bank.sol (note .sol extension)\r\n/* **** START EXAMPLE **** */\r\n\r\n// Declare the source file compiler version\r\npragma solidity ^0.5.1;\r\n\r\n// Start with Natspec comment (the three slashes)\r\n// used for documentation - and as descriptive data for UI elements/actions\r\n\r\n/// @title SimpleBank\r\n/// @author nemild, siddalal\r\n\r\n/* 'contract' has similarities to 'class' in other languages (class variables,\r\ninheritance, etc.) */\r\ncontract SimpleBank { // CapWords\r\n    // Declare state variables outside function, persist through life of contract\r\n\r\n    // dictionary that maps addresses to balances\r\n    // always be careful about overflow attacks with numbers\r\n    mapping (address => uint) private balances;\r\n\r\n    // \"private\" means that other contracts can't directly query balances\r\n    // but data is still viewable to other parties on blockchain\r\n\r\n    address public owner;\r\n    // 'public' makes externally and internally readable (not writeable) by users or contracts\r\n\r\n    // Events - publicize actions to external listeners\r\n    event LogDepositMade(address accountAddress, uint amount);\r\n\r\n    // Constructor, can receive one or many variables here; only one allowed\r\n    // at the creation of contract\r\n   \tconstructor() public {\r\n        // msg provides details about the message that's sent to the contract\r\n        // msg.sender is contract caller (here address of contract creator)\r\n        owner = msg.sender;\r\n    }\r\n    \t// Access control modifier\r\n        // Modifiers validate inputs to functions such as minimal balance, or user auth\r\n        //'_;' included as the last line in the body and indicates that it will wrap\r\n        //around the function which refers to this modifier. \r\n\tmodifier onlyOwner {\r\n\t\trequire(msg.sender == owner,\r\n\t\t        \"Only the contract owner can call this function\");\r\n\t\t_;\r\n\t}\r\n\r\n    \t// Accept any incoming amount and change balance\r\n    \t   /// @notice Deposit ether into bank\r\n    /// @return The balance of the user after the deposit is made\r\n    \t\r\n    function () external payable {\r\n    // Use 'require' to test user inputs, 'assert' for internal invariants\r\n    // Here we are making sure that there isn't an overflow issue\r\n        require((balances[msg.sender] + msg.value) >= balances[msg.sender]);\r\n        balances[msg.sender] += msg.value;\r\n        emit LogDepositMade(msg.sender, msg.value); // fire event\r\n     //return balances[msg.sender];\r\n    }\r\n    \r\n     address public whoDeposited; \r\n     \r\n     function deposit() public payable returns  (uint remainingBal) {\r\n         whoDeposited=msg.sender;\r\n        require((balances[msg.sender] + msg.value) >= balances[msg.sender]);\r\n        balances[msg.sender] +=  msg.value;\r\n        emit LogDepositMade(msg.sender, msg.value); // fire event\r\n        return balances[msg.sender];\r\n    }\r\n    \r\n    \r\n    /// @notice Withdraw ether from bank\r\n    /// @dev This does not return any excess ether sent to it\r\n    /// @param withdrawAmount amount you want to withdraw\r\n    /// @return The balance remaining for the user\r\n    uint public wAmount;\r\n    address public whoWithdrew;\r\n    \r\n    function withdraw(uint withdrawAmount) public payable returns (uint remainingBal) {\r\n        whoWithdrew=msg.sender;\r\n        wAmount=withdrawAmount;\r\n        require(withdrawAmount <= balances[msg.sender]);\r\n\r\n        // Note the way we deduct the balance right away, before sending\r\n        // Every .transfer/.send from this contract can call an external function\r\n        // This may allow the caller to request an amount greater\r\n        // than their balance using a recursive call\r\n        // Aim to commit state before calling external functions, including .transfer/.send\r\n        balances[msg.sender] -= withdrawAmount;\r\n        // this automatically throws on a failure, which means the updated balance is reverted\r\n        msg.sender.transfer(withdrawAmount);\r\n        return balances[msg.sender];\r\n    }\r\n\r\n    /// @notice Get balance\r\n    /// @return The balance of the user\r\n    // 'view' (ex: constant) prevents function from editing state variables;\r\n    // allows function to run locally/off blockchain\r\n    function balance() view public returns (uint) {\r\n        return balances[msg.sender];\r\n    }\r\n    /// Notice the contract can be destroyed only by owner (see check; modifier and require)\r\n    // Sends remaning balance to msg.sender\r\n    \tfunction destroy() public onlyOwner {\r\n\t    require(msg.sender == owner, \"Only the contract owner can call this function\");\r\n\t\tselfdestruct(address(uint160(owner)));\r\n\t}\r\n}\r\n// ** END EXAMPLE **",
  "sourcePath": "C:\\Users\\vsais\\200-send-transaction-with-web3-nodejs\\contracts\\SimpleBank.sol",
  "compiler": {
    "name": "solc",
    "version": "0.5.16+commit.9c3226ce.Emscripten.clang"
  },
  "schemaVersion": "3.4.6",
  "updatedAt": "2022-04-14T11:58:41.104Z",
  "networkType": "ethereum",
  "devdoc": {
    "author": "nemild, siddalal",
    "methods": {
      "balance()": {
        "return": "The balance of the user"
      }
    },
    "title": "SimpleBank"
  },
  "userdoc": {
    "methods": {
      "balance()": {
        "notice": "Get balance"
      },
      "destroy()": {
        "notice": "Notice the contract can be destroyed only by owner (see check; modifier and require)"
      }
    }
  }
}